:020000040800F2
:10000000A818002001010008AF220008631F0008A3
:10001000AD220008C90400084727000800000000BE
:10002000000000000000000000000000B3220008F3
:100030000F05000800000000B1220008B5220008EA
:100040001B0100081B0100081B0100081B01000820
:100050001B0100081B0100081B0100081B01000810
:100060001B0100081B01000811050008CD04000851
:100070001B0100081B0100081B010008D90400082F
:100080001B0100081B0100088D0300081B0100086C
:100090001B0100081B0100081B0100081B010008D0
:1000A0001B0100081B0100081B0100081B010008C0
:1000B000592300081B0100081B0100081B01000850
:1000C0001B0100081B0100081B0100081B010008A0
:1000D0001B010008052700081B0100081B01000880
:1000E0001B0100081B0100081B010008DFF80CD0F1
:1000F00000F00EF900480047DD2B0008A81800208A
:100100000648804706480047FEE7FEE7FEE7FEE7B1
:10011000FEE7FEE7FEE7FEE7FEE7FEE71123000845
:10012000ED00000810B540EA01040346A40703D01F
:1001300009E010C9121F10C3042AFAD203E011F813
:10014000014B03F8014B521EF9D210BDD2B201E0AF
:1001500000F8012B491EFBD270470022F6E710B5CC
:1001600013460A4604461946FFF7F0FF204610BD25
:1001700030B505462A460B4612F8010B13F8014B21
:1001800008B1A042F8D01CB1002802D06D1CF1E7E4
:10019000284630BD421C10F8011B0029FBD1801AF3
:1001A000704710B5044600E0401C0378002BFBD1DB
:1001B00000E0401C521E04D311F8013B0370002BD9
:1001C000F7D100210170204610BD2DE9F04791467E
:1001D0000F4680460446002614F8015B2DB100F05E
:1001E00043F80068405DC007F6D12B2D02D02D2DBD
:1001F00018D0641E4A463946204600F039F827B127
:100200003968A14201D1C7F8008071054FF002049E
:100210000BD54042002803DD02F0BAFA0460A007C3
:10022000BDE8F08746F48066E4E70028F8DA02F0DB
:10023000AFFA04606FF00040F2E730B50B460146BC
:1002400000202022012409E021FA02F59D4205D375
:1002500003FA02F5491B04FA02F52844151EA2F11F
:100260000102F1DC30BD000000487047283C000866
:100270002DE9F05F82460078002715468B460AF18B
:100280000104B946302801D09DB113E014F8010BE8
:100290000127782803D0582801D045B10AE00DB1D4
:1002A000102D07D10027102514F8010B02E00825B6
:1002B00000E00A250026B0460EE005FB080005FB1D
:1002C00006F1012701EB10461FFA80F8B6F5803FD2
:1002D00000D3B94614F8010B294600F02BF800288A
:1002E000EBDABBF1000F05D00FB1641E00E05446FD
:1002F000CBF80040B9F1000F06D002F049FA022114
:100300000160C81EBDE8F09F48EA0640FAE7000019
:10031000064C074D06E0E06840F0010394E8070052
:1003200098471034AC42F6D3FFF7E4FE2C3C0008AB
:100330004C3C00083A2800D2303820F02002412AF4
:1003400001D3A2F13700884201D34FF0FF3070474C
:1003500030B58C1810F8012B12F00F0301D110F8F2
:10036000013B120906D110F8012B03E010F8015BE4
:1003700001F8015B5B1EF9D101E001F8013B521E5F
:10038000FBD1A142E6D3002030BD0000014800F0BF
:1003900046B900002011002070B50446006881684D
:1003A000C943C9071CD1816821F00101816000F0B7
:1003B0007FFD05460FE000BF00F07AFD401B0228DC
:1003C00009D9A06A40F01000A062E06A40F0010084
:1003D000E062012070BD20688068C043C007EBD098
:1003E000002070BD10B50146406A826A12F0500FBD
:1003F00005D0006A026BBDE8104008461047816ACC
:1004000041F40071816201688968C1F342410729A2
:100410000CD1017B51B9816A21F480718162816ABA
:10042000C90403D4816A41F00101816200F0F4F84B
:1004300010BD10B5406A816A41F040018162C16A15
:1004400041F00401C16200F0E9F810BD10B5406A46
:1004500000F0E3F810BD0000F8B500260446009651
:1004600000688168C943C90728D0816841F001014B
:100470008160134813490068B0FBF1F000E0401EB2
:1004800000900028FBD100F013FD054611E000BFED
:1004900000F00EFD401B02280BD9A06A40F01000AE
:1004A000A062E06A40F00100E06284F8246001206C
:1004B000F8BD20688068C043C007E9D10020F8BDBE
:1004C0005C01002040420F00FEE70000014800F000
:1004D000C9BA000020140020014800F0C3BA00008F
:1004E0006414002030B590F840500124AC40C56B36
:1004F0006C60046863604368102B036803D09960E4
:100500000068C26030BD9A600068C16030BD70474D
:10051000102000F0CBBB704770470000F8B50024F6
:10052000009490F824202546012A12D0012280F858
:1005300024204A681F23072A0DD20668776B521EB3
:1005400002EB820293409F430B6893401F43776303
:1005500019E00220F8BD06680D2A0AD2376BD21FB7
:1005600002EB820293409F430B6893401F43376323
:1005700009E0F76A0D3A02EB820293409F430B6851
:1005800093401F43F7620A68072306680A2A0AD3C2
:10059000F7680A3A02EB420293409F438B6893400C
:1005A0001F43F76008E0376902EB420293409F4324
:1005B0008B6893401F4337610A68102A01D0112AC3
:1005C00020D1124B02689A4217D193681B0219D4AA
:1005D000936843F4000393600968102912D10C4911
:1005E0000C4A0968B1FBF2F101EB8101490000E01E
:1005F000491E00910029FBD104E0816A41F02001ED
:100600008162012480F824502046F8BD0024014076
:100610005C01002040420F0070477047704710B5E2
:10062000044600684168890626D50168890723D5F4
:10063000A16AC90603D4A16A41F40071A16281686C
:10064000C1F34241072910D1217B71B9416821F0E2
:1006500020014160A06A20F48070A062A06AC004FA
:1006600003D4A06A40F00100A0622046FFF7D4FF47
:1006700021686FF0120008602068416809062ED5D5
:10068000016849072BD5A16AC90603D4A16A41F4C0
:100690000051A1628168C1F30231072909D0416884
:1006A000490515D48168C1F34241072910D1217B46
:1006B00071B9416821F080014160A06A20F4805046
:1006C000A062A06AC00503D4A06A40F00100A06245
:1006D0002046FFF721FF21686FF00C0008602068BA
:1006E000416849060DD50068C0070AD0A06A40F4E9
:1006F0008030A062204600F093F821686FF001007E
:10070000086010BD2DE9F0414FF0000704003D46A0
:100710007ED0A06A002628B9E66284F824602046CC
:1007200000F080F82046FFF737FEA16AC90600D422
:1007300020B1A06A40F01000A06269E0A16A21F433
:10074000885141F00201A1626268E169237B0A439A
:1007500047EA43010A43A1684FF48077B94209D0C0
:10076000012907D05FF0000194F814C0BCF1010F1B
:1007700002D00AE03946F7E7F3B1A36A43F0200359
:10078000A362E36A43F00103E3622368D3F804C081
:100790002CF4694C4CEA010CC3F804C021688B6846
:1007A000DFF870C003EA0C0313438B60A168B94201
:1007B0000BD0012909D00CE0DFF85CC0A3690CEB79
:1007C00043330B4343F40061DFE7218A0D05A5F5B0
:1007D00080152168CB6A23F470032B43CB62216818
:1007E00089680E4B1940914208D1E662A16A21F056
:1007F000020141F00101A162BDE8F081A06A20F090
:10080000020040F01000A062E06A40F00100E062E7
:100810000120F1E7FDF7E1FF00E0FFFFFE0E1FFF03
:100820007047000070B586B000250646009501951A
:100830000295039500681D49884235D11C49886995
:1008400040F400708861886900F400700490886941
:1008500040F0040088618869694600F00400049053
:10086000032000900190134800F02CFA134C12481A
:10087000C4E900058020C4E90250400020618000E6
:1008800060612020C4E90605204600F095F908B112
:10089000FFF741FE3462002211461220666200F02A
:1008A0008BFC122000F07AFC06B070BD00240140E1
:1008B00000100240000801400800024020140020FF
:1008C0002DE9F047894604463B4900683B4F0E1D21
:1008D0009046884201D0B84207D1306810F4702F9A
:1008E00003D001252846BDE8F08794F824000128AC
:1008F0000CD0012084F824002046FFF7ADFD050050
:100900004FF0000004D084F82400EBE70220EAE76F
:10091000A16A40F60162914341F48071A1622168AD
:10092000B94218D1326812F4702F14D0A16A41F480
:100930008011A1623168490505D5A16A21F40051F1
:1009400041F48051A162A16AC9040AD5E16A21F08B
:100950000601E16206E0A26A22F48012A2624968FE
:10096000E9E7E06284F82400216A15488862216A78
:100970001448C862216A1448086321686FF00200B5
:1009800008602068816841F4807181602168434675
:100990004A464C31206A00F03DF920688168C1F375
:1009A00042410729816803D041F48011816099E7B1
:1009B00041F4A001FAE700000024014000280140B2
:1009C000E50300084D0400083304000810B590F852
:1009D00021100024022903D00421816301243DE079
:1009E00001680A6822F00E020A6001680A6822F0B3
:1009F00001020A601A4A0168914201D1012121E0F5
:100A0000174A1432914201D110211BE0144A2832B6
:100A1000914201D1891515E0114A3C32914201D130
:100A200089140FE00E4A5032914202D14FF48031C6
:100A300008E00B4A6432914202D14FF4801101E088
:100A40004FF08071064A083A5160012180F8211068
:100A5000002180F82010416B01B18847204610BD6D
:100A6000080002402DE9F05FC16B0C6801680B685B
:100A7000D0F840C0042202FA0CF2494DDFF824A15C
:100A8000494E4A4FDFF828B1DFF828E122422CD046
:100A90005A072AD50A68920603D40A6822F004028B
:100AA0000A600168A94201D1042219E0514501D12F
:100AB000402215E0B14202D14FF4806210E0B94209
:100AC00002D14FF480420BE0594502D14FF480220D
:100AD00006E0714502D14FF4800201E04FF08062E0
:100AE0002F4908394A60C16A3BE04FF0020808FA12
:100AF0000CF818EA040F4FF000094FF0010235D04E
:100B00005FEA837832D50B689B0605D40B6823F027
:100B10000A030B6080F821200168A94201D102225A
:100B200019E0514501D1202215E0B14202D14FF424
:100B3000007210E0B94202D14FF400520BE0594567
:100B400002D14FF4003206E0714502D14FF4001299
:100B500001E04FF00072124908394A6080F8209095
:100B6000816A00291AD0BDE8F05F0847082505FA18
:100B70000CF5254212D01B0710D50B6823F00E038D
:100B80000B6090F84010C36B02FA01F15960826368
:100B900080F8212080F82090016BE2E7BDE8F09F0B
:100BA000080002401C0002403000024044000240A5
:100BB000580002406C00024030B528B308C8134901
:100BC00014221944B1FBF2F18900C1631049816319
:100BD000022141771A6843F6F0718A43D0E9001484
:100BE0002143D0E902452C43214304692143446950
:100BF000214384692143114319600021416301228B
:100C000042770177084630BD012030BDF8FFFDBFB7
:100C10000000024070B5044690F82000002501282D
:100C20000CD0012084F8200094F821600020012ECF
:100C300006D084F820000225284670BD022070BD31
:100C4000022684F82160A0632068066826F0010669
:100C500006602046FFF746FCE06A0028206801682D
:100C600002D041F00E0106E021F00401016020688D
:100C7000016841F00A0101602068016841F001014A
:100C80000160D9E770B5044600F012F90546601C12
:100C900002D004480078044400F00AF9401BA04246
:100CA000FAD370BD5001002070470000044910B510
:100CB0000A68024202D00860FFF7F6FF10BD00008C
:100CC000140401402DE9F84FDFF8B891002409F130
:100CD000040A0AF1040B23460F270BF1040EC9E0A6
:100CE0000125A5402A40AA427DD1674ED1F804C013
:100CF000ACEB0608B44532D014DCBCF1030F3AD09B
:100D000009DCBCF1000F2AD0BCF1010F1CD0BCF1F2
:100D1000020F31D11DE0BCF1110F17D0BCF1120F41
:100D20002AD119E0B8F5881F19D006DCB8F5803F44
:100D300015D0B8F5801F1FD111E0B8F5001F0ED0F7
:100D4000B8F5041F18D10AE0CB6815E0CB681B1D6D
:100D500012E0CB6808330FE0CB680C330CE08B68F3
:100D60002BB1012B4FF0080303D0456104E00423AD
:100D700002E0056100E00023FF2A01D8064601E0F9
:100D800000F104064FEA840501D9A5F12005D6F843
:100D9000008007FA05FC28EA0C0803FA05F548EA82
:100DA0000508C6F800804D68ED0062D5374DAE6984
:100DB00046F00106AE61AD6924F0030605F00105B9
:100DC0000095334D06EB050CDCF80850A607360FEE
:100DD00007FA06F825EA0805DFF8B880404503D190
:100DE0004FF0000817E044E0DFF8AC80404502D146
:100DF0004FF001080FE0DFF8A480404502D14FF02A
:100E0000020808E0DFF89880404502D14FF003085F
:100E100001E04FF0040808FA06F848EA0508CCF8A3
:100E200008804D68D9F80060ED034D4601D51643A2
:100E300000E096432E604D68DAF80060AD03554639
:100E400001D5164300E096432E604D68DBF8006044
:100E5000ED025D4601D5164300E096432E604D68D5
:100E6000DEF80060AD02754601D5164300E09643FA
:100E70002E60641C0D682A46E5407FF431AFBDE862
:100E8000F88F000000040140000011100010024023
:100E90000000014000080140000C0140001001402A
:100EA000001401400AB1016170470904FBE700002A
:100EB00001488068704700005001002070B50400B0
:100EC0001BD094F83D00002520B984F83C50204602
:100ED00000F0AEF8242084F83D002068016821F07D
:100EE0000101016000F0A6FA4D4A6168914201D803
:100EF0004C4900E04C49884201D2012070BD4B4969
:100F00002368B0FBF1F15E6826F03F060E435E6099
:100F10006368934206D94FF4967359434FF47A733A
:100F2000B1FBF3F12368491C1E6A26F03F063143EA
:100F300019626168914210D84900401EB0FBF1F27D
:100F4000521CC2F30B02042A01D2042022E0B0FB9F
:100F5000F1F0401CC0F30B001CE0A368F3B301EBFD
:100F6000C10202EB0116421EB2FBF6F2521C42F421
:100F70008042120549D093B301EBC10202EB01118B
:100F8000401EB0FBF1F0401CC0F30B0040F4804069
:100F900040F400402168CA694CF6FF739A4310433D
:100FA000C861D4E90701084321680A6822F0C00239
:100FB00010430860D4E9030101432068826848F2C5
:100FC000FF339A4311438160D4E905010843216846
:100FD000CA6822F0FF021043C86001E00EE016E08C
:100FE0002068016841F0010101602564202084F837
:100FF0003D00256384F83E50002070BD01EB4106A2
:10100000421EB2FBF6F2521CB3E70120C2E701EB2D
:101010004101401EB0FBF1F0401CC0F30B00B7E7EC
:10102000A086010080841E0000093D0040420F00A0
:1010300010B586B0002100910191029103910068E2
:101040000F4988421AD10F4CA06940F00800A061F6
:10105000A069694600F008000490C02000901220AA
:101060000190032003900848FFF72CFEE06940F44C
:101070000010E061E06900F40010049006B010BDBB
:101080000054004000100240000C014070B5040004
:1010900011D021684CF6CC400860216845F25550CB
:1010A0000860D4E9000141602168A0688860FFF70A
:1010B000FFFE054609E0012070BD00BFFFF7F8FE06
:1010C000401B302801D9032070BD2068C06800286B
:1010D000F4D121684AF6AA200860002070BD00689B
:1010E0004AF6AA210160002070470000024881688A
:1010F000027811448160704750010020074810B504
:10110000016841F010010160032000F075F8002033
:1011100000F006F800F024F8002010BD0020024086
:1011200070B50D4D04464FF47A712878B1FBF0F09C
:101130000A490968B1FBF0F000F062FB48B9102CD5
:1011400007D200222146501E00F036F800206C60C5
:1011500070BD012070BD0000500100205C01002026
:101160000C4808B5816941F001018161816901F094
:1011700001010091C16941F08051C161C06900F075
:10118000805000900448416821F0E06141F08061A6
:10119000416008BD0010024000000140002809DB4A
:1011A00000F01F02012191404009800000F1E02081
:1011B000C0F8001170470000F0B40E4B1B680C46DD
:1011C000C3F30223C3F10705042D00D90425191D1B
:1011D000072901D2002300E0DB1E012606FA05F1F3
:1011E000491E214099409E40761E16403143F0BC76
:1011F00001F0BEBA0CED00E0064900F007020868F5
:101200004FF6FF03184040EA0220034A10430860EB
:10121000704700000CED00E00000FA052DE9F843EE
:1012200005460078354CC00754D0E0690026C00060
:1012300008D4E06940F08050E061E069012600F0E8
:10124000805000902E480168C90512D4016880467C
:1012500041F480710160FFF72BFE074605E000BFF7
:10126000FFF726FEC01B642823D8D8F80000C0056D
:10127000F6D5206A10F4407021D0A98801F440719D
:1012800081421CD0206A1F49012220F440700A606C
:1012900000220A602062C00711D0FFF709FE07464E
:1012A00041F2883808E000BFFFF702FEC11B41454C
:1012B00002D90320BDE8F883206A8007F4D5206AAC
:1012C000696820F44070084320621EB1E06920F094
:1012D0008050E0612878800705D56068A96820F40F
:1012E0004040084360602878C00605D56068E9681A
:1012F00020F48000084360600020DBE7001002401B
:1013000000700040400442422DE9F0470F460500BE
:1013100061D0434E306800F00700B84209D230680F
:1013200020F0070038433060306800F00700B84212
:1013300051D128683B4C810712D5400703D560681E
:1013400040F4E06060602878000703D5606840F4EE
:10135000605060606068A96820F0F0000843606039
:101360002878C00728D06868012810D02168022892
:1013700010D0890700292EDA616821F003010143AA
:101380006160FFF795FD804641F288390DE02168E4
:101390008903EFE78901EDE7FFF78AFDA0EB08017C
:1013A000494502D90320BDE8F0876068696800F00C
:1013B0000C00B0EB810FEFD1306800F00700B842AD
:1013C0000BD9306820F0070038433060306800F0F7
:1013D0000700B84201D00120E5E72878400705D58D
:1013E0006068E96820F4E0600843606028780007DE
:1013F00006D56068296920F4605040EAC100606049
:1014000000F038F86168084AC1F30311515CC84024
:101410000649086006480068FFF782FE0020C2E720
:1014200000200240001002408C3B00085C010020BC
:10143000540100200448054900684968044AC1F382
:101440000221515CC84070475C010020001002403E
:101450009C3B00080448054900684968044AC1F3F8
:10146000C221515CC84070475C010020001002405E
:101470009C3B000812A185B00FC98DE80F0014A095
:10148000144A006804905168134801F00C03042BBF
:1014900010D0082B0ED1C1F38343C9031DF80300FC
:1014A0000AD5516804AAC1F34041515C0A4A50432D
:1014B000B0FBF1F005B0704708494843FAE7000077
:1014C00002030405060708090A0B0C0D0E0F101085
:1014D000010200000010024000127A0000093D00E5
:1014E0002DE9F84F040070D02078C04DC00749D0D6
:1014F0006868C0F38100012807D06868C0F38100E4
:10150000022809D16868C00306D52868800339D548
:1015100060680028E7D035E06068B0F5803F0BD008
:1015200010B1B0F5A02F11D0286820F480302860C9
:10153000286820F4802002E0286840F48030286089
:10154000606890B1FFF7B4FC06460AE0286840F4F2
:1015500080202860F0E700BFFFF7AAFC801B64280A
:1015600073D828688003F7D50CE0FFF7A1FC064686
:1015700005E000BFFFF79CFC801B6428F0D82868BA
:101580008003F7D420789A4E80074FF001094FF07E
:10159000000839D5686810F00C0F07D06868C0F3F0
:1015A0008100022809D16868C00306D42868800732
:1015B00014D52069012808D110E02069B0B1C6F81F
:1015C0000090FFF775FC074605E00AE1FFF770FCA5
:1015D000C01B0228C4D828688007F7D5286861692D
:1015E00020F0F80040EAC10028600DE0C6F8008055
:1015F000FFF75EFC074604E0FFF75AFCC01B022819
:1016000023D828688007F7D4207800072CD579489C
:10161000A169D9B1C0F80090FFF74AFC074604E081
:10162000FFF746FCC01B02280FD8686A8007F7D571
:1016300071484FF4FA510068B0FBF1F0009000BF20
:101640000098411E0091FAD20EE080E0C0F80080C0
:10165000FFF72EFC074604E0FFF72AFCC01B022818
:1016600075D8686A8007F7D42078400760D5E869A4
:101670000027C00008D4E86940F08050E861E869BC
:10168000012700F0805000905C480168C90513D420
:101690000168834641F480710160FFF709FC8246CE
:1016A00006E000BFFFF704FCA0EB0A0064284ED858
:1016B000DBF80000C005F5D5E06801280AD008B1C4
:1016C000052813D0286A20F001002862286A20F03B
:1016D000040002E0286A40F001002862E06841F25C
:1016E000883B98B1FFF7E4FB82460BE0286A40F0A4
:1016F00004002862EEE700BFFFF7DAFBA0EB0A0167
:1017000059455AD8286A8007F6D50CE0FFF7D0FB78
:10171000824605E0FFF7CCFBA0EB0A0159454CD807
:10172000286A8007F6D41FB1E86920F08050E8618C
:10173000E06988B36968C1F38101022944D00228B5
:10174000C6F8608004D0FFF7B3FB044638E034E00D
:10175000FFF7AEFB074604E0FFF7AAFBC01B022819
:101760002BD828688001F7D4206AB0F5803F05D1D6
:101770006868A16820F4003008436860D4E9080173
:101780000843696821F4741108436860C6F86090E2
:10179000FFF78EFB044606E025E000BFFFF788FB5D
:1017A000001B022809D828688001F7D51BE000BF7C
:1017B000FFF77EFB001B022802D90320BDE8F88F4B
:1017C00028688001F4D40EE00128F7D06868226A06
:1017D00000F48031914204D1616A00F470108842B3
:1017E00001D00120EAE70020E8E7000000100240F5
:1017F00000004242800442425C0100200070004030
:1018000010B5401EB0F1807F01D3012010BD4FF014
:10181000E02460610F21601700F0AAFF0020A061A2
:1018200007202061002010BD7047704770B590F808
:101830003C20012A19D0012400F83C4F02224270BA
:1018400050F83C3C5A689D6822F070060A68496866
:10185000324325F0800529435A6050F83C2C9160B2
:10186000447000210170084670BD022070BD10B5A3
:10187000040003D094F83D0010B107E0012010BD32
:10188000002084F83C00204600F00CF8022084F888
:101890003D00211D206800F065FD012084F83D0019
:1018A000002010BD08B50068B0F1804F12D10A4881
:1018B000C16941F00101C161C069002200F001006D
:1018C000009011461C20FFF777FCBDE808401C2063
:1018D000FFF764BC08BD00000010024070B504466C
:1018E00090F83C00012817D0012584F83C500220D4
:1018F00084F83D002068826822F0770222F47F425B
:1019000082600868502830D00DDC20284DD005DCDE
:1019100098B310283BD148E0022070BD302844D055
:10192000402834D139E0602828D0702806D0B0F59E
:10193000805F2CD0B0F5005F29D10AE0CB68D1E9F7
:101940000121206800F044FD2068816841F07701A2
:1019500009E0CB68D1E90121206800F039FD206859
:10196000816841F48041816011E0CA68496820685B
:1019700000F083FD5021206807E016E0CA6849683E
:10198000206800F08BFD6021206800F02BFD84F8BA
:101990003D50002084F83C0070BDCA68496820684A
:1019A00000F06BFD40212068EFE7226801461046F9
:1019B000EBE7704770B50446006801694FF0000519
:1019C000C943890715D4C168C943890711D4E91EE1
:1019D000016101202077206880698007204602D0BD
:1019E000FFF7E7FF04E000F098F8204600F096F8D3
:1019F000257720680169C943490717D4C168C943DD
:101A0000490713D46FF00401016102202077206898
:101A1000806910F4407F204602D0FFF7CAFF04E03F
:101A200000F07BF8204600F079F8257720680169FE
:101A3000C943090716D4C168C943090712D46FF016
:101A400008010161042020772068C06980072046D2
:101A500002D0FFF7AEFF04E000F05FF8204600F090
:101A60005DF8257720680169C943C90617D4C168A4
:101A7000C943C90613D46FF0100101610820207713
:101A80002068C06910F4407F204602D0FFF791FF24
:101A900004E000F042F8204600F040F82577206886
:101AA0000169C943C90708D1C168C943C90704D13D
:101AB000891E0161204600F032F820680169C9439F
:101AC000090609D4C168C943090605D46FF080012D
:101AD00001612046FFF7A8FE20680169C943490655
:101AE00009D4C168C943490605D46FF040010161BA
:101AF000204600F040F820680169C94389060BD4EC
:101B0000C168C943890607D46FF0200101612046EE
:101B1000BDE87040FFF789BE70BD704770477047E1
:101B200070B5044690F83C00012812D0012584F8D5
:101B30003C50022084F83D00204600F05BFC010090
:101B40004FF0000007D084F83D5084F83C0001209D
:101B500070BD022070BD2168CA6822F04002CA60D0
:101B60002168CA6822F48042CA6084F83D5084F833
:101B70003C00002070BD70477047000070B50268DF
:101B800004461068D168536910F00F0F50D003F06D
:101B9000010501F4907635435DD0C20705D0CA0532
:101BA00003D5E26B42F00102E263420705D5DA0792
:101BB00003D0E26B42F00202E263820705D5DA0746
:101BC00003D0E26B42F00402E263020705D5DA07B4
:101BD00003D0E26B42F00802E263E26B002A33D0EA
:101BE000800604D5880602D5204600F07FFC2068D8
:101BF0004069E16BC0F38010090700D428B3204688
:101C000000F066FC2068416949061AD5416921F057
:101C100040014161606BA0B11B494163606BFEF7FD
:101C2000D5FE002810D0606B416BBDE870400847BE
:101C3000830610D58B060ED52046BDE8704000F017
:101C400055BC2046FFF798FF70BD2046FFF794FF74
:101C50000020E06370BD030606D50B0604D52046C0
:101C6000BDE8704000F0EABC4006F3D54806F1D567
:101C7000D168204621F04001D160202184F839103C
:101C800000F06EF970BD0000C124000870B50400BA
:101C900004D094F83900002510B106E0012070BD91
:101CA00084F83850204600F023F8242084F83900C6
:101CB0002068C16821F40051C160204600F062FC38
:101CC0002068016921F4904101612068416921F097
:101CD0002A0141612068C16841F40051C160E56397
:101CE000202084F8390084F83A00002070BD0000FC
:101CF000F0B585B000240094019402940394064644
:101D0000344F0368344902200322344DBB423DD195
:101D10008B6943F480438B618B6903F480430493A4
:101D20008B6943F004038B618969039201F004011C
:101D300004910102CDE9001069462846FEF7C2FF72
:101D40002815CDE90004694628460294FEF7BAFF3B
:101D5000244D2348C5E900048020C5E90240202025
:101D60002C61C5E905402846EC61FEF725FF08B166
:101D7000FEF7D1FB75630022114625206E62FFF746
:101D80001BFA2520FFF70AFA05B0F0BD164EB34244
:101D9000FAD1CB6943F40033CB61CB6903F4003350
:101DA00004938B6943F004038B618969039201F00A
:101DB000040104910421CDE9001069462846FEF78C
:101DC00081FF0820CDE90004694628460294FEF709
:101DD00079FFD9E7003801400010024000080140B7
:101DE0005800024064140020004400402DE9F843EC
:101DF000044690F83A00994616460D4620284FD1E1
:101E000095B18EB194F83800012849D0012084F8AA
:101E100038000027E763222084F83A00FFF748F8EB
:101E2000A6858046E68531E00120BDE8F883E08D97
:101E3000401EE085A0684346B0F5805F4FF0000289
:101E40004FF020012046CDF8009004D000F027FC90
:101E500098B10320E9E700F022FC0028F9D12069BD
:101E600000282068406803D0C1B225F8011B0DE0AE
:101E7000C0F3080125F8021B08E02069002820684B
:101E8000406801D000F07F0005F8010BE08D0028CC
:101E9000CDD1202084F83A0084F838700020C4E7BF
:101EA0000220C2E770472DE9F843044690F8390054
:101EB0001F4616460D46202850D1A5B19EB194F874
:101EC000380001284AD0012084F838004FF000087B
:101ED000C4F83C80212084F83900FEF7E9FFA6848D
:101EE0008146E68426E00120BDE8F883E08C401EB0
:101EF000E084A0684B46B0F5805F4FF000024FF0E1
:101F000080012046009703D000F0C9FBE8B90DE03E
:101F100000F0C5FBC8B928882168C0F308004860F4
:101F2000206908B16D1C05E0AD1C03E0216815F8BF
:101F3000010B4860E08C0028D8D14B46002240219C
:101F40002046009700F0ABFB08B10320CCE720202F
:101F500084F8390084F838800020C5E70220C3E700
:101F60007047FEE71FB501F033F800F007FDC82009
:101F7000FEF788FE174800F0F9FFC820FEF782FE42
:101F800000F044FDC820FEF77DFE00F003FEC820EF
:101F9000FEF778FE00F09AFEC820FEF773FE01F00F
:101FA0007DF8C820FEF76EFE01F034F801F054F819
:101FB00000F008FD01F094F8C820FEF763FE01F080
:101FC000B1F80549684600F0DBFEC820FEF75AFE6E
:101FD0001FBD0000F60000207012002070B53D4CBF
:101FE0008CB00026267066703A497431A1F1640005
:101FF00001F0BAF820703848FFF771F8207800280F
:10200000354841D0FFF76BF8142034A1CDE9091011
:1020100033A1039131A2CDE907620120CDE9040685
:1020200033A106960090CDE901012A4B2A48CE3310
:10203000032232A1EC3000F00BFD264D80B2688007
:1020400000F05CFF24496888EC3100F04FFFC820A5
:10205000FEF718FE2BA131A0CDE9000100221146A8
:102060003048EB6800F054FE80B2A88000F046FFD4
:102070002C49A88800F03AFFC820FEF703FEC821CB
:102080002848FEF76AF81FE0FFF729F800F076FC11
:10209000C820FEF7F7FD0F48A63000F067FFC82004
:1020A000FEF7F0FD00F0B2FCC820FEF7EBFD0A4899
:1020B000FFF715F800F086FC01F034F8C820FEF7B1
:1020C000E1FD6078401C6070207800288CD00CB056
:1020D00070BD000050000020A4110020000000008E
:1020E000386C4545336C3548386F635A0000000042
:1020F00065786D6B69797261000000004D5149731C
:1021000064700000534D4152545F53595354454D30
:102110005F434F4E4E45435400000000535441541A
:102120005553000058130020FEB5002411480094B8
:1021300001940F490294016089158160012505739E
:102140000475022606614FF460214460C161FEF708
:10215000D9FA07200094CDE9015069460548FEF7F9
:10216000DDF9CDE9005669460248FEF7D7F9FEBD14
:1021700000240140201100202DE9F04385B0002407
:102180002E480094019402940394816941F0100157
:102190008161816901F010010491816941F02001A0
:1021A0008161816901F020010491816941F004019C
:1021B0008161816901F004010491816941F00801A4
:1021C00081618069DFF8788000F008004FF40065D5
:1021D0000490002229464046FEF764FEDFF8649032
:1021E0004FF44077002239464846FEF75BFE102048
:1021F00000901548CDE9010469464046FEF762FDAE
:102200000095022601250396CDE901546946404612
:10221000FEF758FD00970396CDE9015469464846FC
:10222000FEF750FD002211460A20FEF7C5FF0A20E6
:10223000FEF7B4FF05B0BDE8F083000000100240D7
:1022400000080140000C01400000111010B58CB0D6
:102250000024059406940794142168460894FDF719
:102260007CFF114809944FF080410A94C0E90014A2
:102270008460C46004618461FFF7F9FA4FF4805010
:10228000059005A90848FFF729FB00946946064810
:102290000194FFF745FC2020CDE9090409A9024873
:1022A000FFF7C4FA0CB010BDB0110020FEE7704774
:1022B00070477047FEF71ABF10B594B028216846E2
:1022C000FDF74BFF14210AA8FDF747FF00240F94E8
:1022D0000A200090012010941194CDE906041021E9
:1022E000CDE9040112946846FFF7FAF80F20CDE912
:1022F0000A040C940D9400210AA80E94FFF704F828
:1023000002200F9011940FA8FEF788FF14B010BDA3
:102310000D48016841F00101016041680B4A11401C
:10232000416001680A4A11400160016821F480217E
:102330000160416821F4FE0141604FF41F0181609A
:102340000449C00308607047001002400000FFF815
:10235000FFFFF6FE08ED00E00148FFF72BBB000091
:10236000B0110020F0B50268164B174C174D4FF016
:102370008047984205D0B84203D0A04201D0A8427D
:1023800003D122F070064A683243984205D0B84221
:1023900003D0A04201D0A84203D122F44074CA68FD
:1023A00022434C6922F08002224302608A68C262A2
:1023B0000A688262984201D1096901630121416181
:1023C000F0BD0000002C0140000400400008004067
:1023D00010B5846842EA032224F47F440A4322436E
:1023E000826010BD826822F070020A4342F0070149
:1023F0008160704710B503689A6822F070044A68DB
:10240000224322F007040A6822439A604A6812F0C5
:102410000F0F30D11211082A2DD2DFE802F02C2C38
:102420002C2C0B2127040B69D1E902210068FFF74E
:10243000CFFF20E00A68052A10D00268136A146AE8
:1024400024F00104146202689469096924F0F0041C
:1024500044EA01119161006803620CE0012010BDA3
:102460000A698968006800F008F804E00A69896868
:10247000006800F013F8002010BD10B5036A046A6C
:1024800024F001040462846924F0F00444EA021494
:1024900023F00A020A438461026210BD10B5036A88
:1024A00023F0100303628369046A23F4704343EA50
:1024B000023224F0A00343EA01118261016210BDDF
:1024C00010B5406A0021C185C184FFF755FB10BDDE
:1024D0000168CA6822F49072CA6001684A6922F0F1
:1024E00001024A61202180F83A10704710B590F837
:1024F0003A10222901D0022010BD8168B1F5805F19
:1025000011D00169002901681FD0496801F07F03DB
:10251000816A4A1C82620B70C18D491E0904090C34
:10252000C18518D02BE00269816A002A02685268CE
:1025300005D0D2B20A80816A491C8162ECE7C2F3FD
:1025400008020A80816A891CF7E74A68816A4B1C85
:1025500083620A70E0E70168CA6822F02002CA605C
:102560000168CA6822F48072CA6001684A6922F070
:1025700001024A61202180F83A10FFF793FC002005
:1025800010BD00002DE9F041044600680169E268D1
:1025900021F44051114301612169A0680843616938
:1025A00008432168CA6841F20C639A430243CA6037
:1025B00020684169A26921F44071114341611E49BB
:1025C000206864253226884202D1FEF743FF01E0ED
:1025D000FEF730FF00EBC00101EB001160686FF007
:1025E00018078000B1FBF0F2B2FBF5F2B1FBF0F39B
:1025F0007A4303EB8202B1FBF0F306EB0212B2FB6B
:10260000F5F2B3FBF5F302F0F00202EB0312B1FBBB
:10261000F0F3B1FBF0F0B0FBF5F0784303EB800092
:1026200006EB0010B0FBF5F0216800F00F0010443D
:102630008860BDE8F08100000038014090F8391052
:10264000212901D0022070478168B1F5805F016ABD
:102650000BD04A1C0262026809785160C18C491E85
:102660000904090CC1840ED017E009880268C1F37F
:102670000801516001690029016A02D0491C016208
:10268000ECE7891CFBE70168CA6822F08002CA6097
:102690000068C16841F04001C160002070472DE929
:1026A000F041984617460E460446069D1DE0681CFC
:1026B0001BD02DB1FEF7FCFBA0EB0800A84214D9FB
:1026C0002068C16821F4D071C1602068416921F09F
:1026D00001014161202084F8390084F83A0000208B
:1026E00084F838000320BDE8F0812068006836EAED
:1026F000000004D00020B842D9D00020F3E7012028
:10270000F9E700000148FFF739BA0000F011002096
:102710002DE9F0410E4607460025FDF73BFD000A76
:1027200030703846FDF736FD0124707003E0785DA7
:10273000641C6D1C30553846FDF72CFDA842F6D8B8
:10274000601CBDE8F081FEE70FB4084B10B504A98A
:1027500002AA039800F030F8044602A9002000F015
:1027600007F9204610BC5DF814FB00007129000831
:102770000907090E002804DB00F1E02080F80014AE
:10278000704700F00F0000F1E02080F8141D704742
:10279000004870476001002002E008C8121F08C10D
:1027A000002AFAD170477047002001E001C1121FD2
:1027B000002AFBD1704700002DE9FF4F8BB09A46ED
:1027C0000F460546002606E025280BD052460D99F7
:1027D00090476D1C761C28780028F5D10FB0304644
:1027E000BDE8F08F0024A0460122604900E00443C8
:1027F00015F8013F203B02FA03F00842F7D1287890
:102800002E2817D115F8010F44F004042A280ED001
:102810006FF02F022878A0F1300109290AD808EBBF
:10282000880102EB410100EB01086D1CF2E757F84B
:10283000048B6D1C287869283ED006DC0028CDD09A
:1028400063280BD0642804D136E0732810D0752893
:102850004BD052460D999047761C85E017F8040B33
:102860008DF8000000208DF80100E946012003E00A
:1028700057F8049B4FF0FF3061074FF0000401D47C
:102880000AE0641C44450DDA8442FADB19F80410AE
:102890000029F6D106E0641C8442FCDB19F8041020
:1028A0000029F8D1264404E019F8010B52460D998D
:1028B0009047641EF8D257E001CF4FF00A0B002872
:1028C00002DA40422D2102E0210504D52B218DF8AA
:1028D0002410012103E0E10705D02021F7E70DF1E5
:1028E000200908910CE00021F9E701CF4FF00A0B15
:1028F000F9E75946FDF7A1FC01F1300209F8012D75
:102900000028F6D1ADEB090000F1200B600701D4DF
:102910004FF00108D84502DDA8EB0B0000E00020D5
:102920008046002406E009A85246005D0D999047B4
:10293000641C761C08988442F5DB04E03020524683
:102940000D999047761CB8F10001A8F10108F5DC5B
:1029500005E019F8010B52460D999047761CBBF122
:102960000001ABF1010BF4DC6D1C34E70928010018
:102970000A68531C0B6010707047000000B599B0D6
:1029800064210D48FDF7E9FB64220C496846FDF718
:10299000C9FB6846FDF7FEFB82B26423694608481E
:1029A000FFF781FA4FF4FA63642203490448FFF702
:1029B0001DFA19B000BD0000AD0D00200838000858
:1029C000F011002000B599B064210D48FDF7C5FB5A
:1029D00064220C496846FDF7A5FB6846FDF7DAFB63
:1029E00082B2642369460848FFF75DFA41F28833F2
:1029F000322203490448FFF7F9F919B000BD00007D
:102A0000A70E002040370008F011002000B599B053
:102A100032210C48FDF7A1FB64220B496846FDF703
:102A200081FB6846FDF7B6FB82B26423694607481E
:102A3000FFF739FA64231A4602490448FFF7D6F92A
:102A400019B000BD110E00206C380008F0110020F4
:102A50002DE9FF4F8DB00546DDE91AA91020DDF8FC
:102A60007C80249E8B4628700027012434216846F0
:102A7000FDF773FB69465846FFF74AFEEB4604E054
:102A80001BF80710641C7F1C29558742F8DB641C67
:102A90000F9828554FEACA11219801EB891101EBD3
:102AA00040112098641C01EBC0011E9801EB8801C5
:102AB00001EB40002855F0B2FF2E01D9310A00E0A9
:102AC0000021641C2955641C342128555846FDF703
:102AD00044FB69461098FFF71BFE014600205E4646
:102AE00003E0325C641C401C2A558842F9DBB8F1D3
:102AF000000F21D034216846FDF72FFB694622984C
:102B0000FFF706FE0146002003E0325C641C401C17
:102B10002A558842F9DB34216846FDF71EFB6946D9
:102B20002398FFF7F5FD0146002003E0325C641CAA
:102B3000401C2A558842F9DBBAF1000F24D0342119
:102B40006846FDF70AFB69461C98FFF7E1FD014660
:102B5000002003E0325C641C401C2A558842F9DBEB
:102B6000B9F1000F10D034216846FDF7F6FA694636
:102B70001D98FFF7CDFD0146002003E0325C641C88
:102B8000401C2A558842F9DB601E687011B0601C39
:102B9000BDE8F08F00B599B064210D48FDF7DDFA6E
:102BA00064220C496846FDF7BDFA6846FDF7F2FA63
:102BB00082B2642369460848FFF775F94FF4FA7347
:102BC000322203490448FFF711F919B000BD000093
:102BD0008710002098390008F011002008B5FEF792
:102BE0008DFAFFF769FBFFF7C7FA3048416941F0FA
:102BF000010141614069002200F00100009011468E
:102C00000B20FEF7D9FA0B20FEF7C8FA0022114676
:102C10000F20FEF7D1FA0F20FEF7C0FAFFF784FA73
:102C200024482349002401602349C0E901144FF4DA
:102C30008041C0E9034144618461C4610462FEF7DC
:102C40003DF91C481D495430C0E9001440F6FF719D
:102C50008160FEF71BFAFFF7F9FA16481849A03011
:102C60004FF416550160C0E901540C26C460C0E958
:102C700004468461C461FFF709F80E481149E03049
:102C80000160C0E90154C460C0E904468461C461C4
:102C9000FEF7FCFF074802220B493038FDF710FE13
:102CA000FFF760F9FFF79AF9FEE700000010024015
:102CB0000054004050110020A08601000030004068
:102CC00000380140004400405600002000B599B093
:102CD00064210C48FDF741FA64220B496846FDF770
:102CE00021FA6846FDF756FA82B26423694607481E
:102CF000FFF7D9F864231A4602490448FFF776F82B
:102D000019B000BDF10F0020603A0008F01100205A
:102D10002DE9F0478EB088460546DDE916A902EB9D
:102D20004800303028701F460026012434216846B0
:102D3000FDF713FA69465046FFF7EAFC694603E0DF
:102D40008A5D641C761C2A558642F9DBB8F1000FB7
:102D500004D0641C380A2855641C2F55002604E052
:102D600019F80600641C761C28554846FDF712FA2F
:102D7000B042F5D8601E68700EB0601CBDE8F087E8
:102D800030B50D46044699B032215448FDF7E5F9B7
:102D9000642253496846FDF7C5F96846FDF7FAF91C
:102DA00082B2642369464F48FFF77DF84FF4FA7307
:102DB0003C224A494B48FFF719F830202070474918
:102DC000092023180A5C401C03F8092C1828F8DB9A
:102DD00045490020225C0A54401C0228FADB424983
:102DE0000220C91C225C0B18401C03F8022C04288A
:102DF000F8DB3D490420891D225C0B18401C03F8B8
:102E0000042C0628F8DB384906200931225C0B180F
:102E1000401C03F8062C0828F8DB334908200C3145
:102E2000225C0B18401C03F8082C0A28F8DB2E49FA
:102E30000A200F31225C0B18401C03F80A2C0C28C6
:102E4000F8DB29490C201231225C0B18401C03F8D6
:102E50000C2C0E28F8DB24490E201531225C0B18AF
:102E6000401C03F80E2C1028F8DB102200211E480D
:102E7000FDF7ABF928751C4810220021C01CFDF796
:102E8000A4F96875184810220021801DFDF79DF9EE
:102E9000A8751548102200210930FDF796F9E8754C
:102EA0001148102200210C30FDF78FF928760E48CA
:102EB000102200210F30FDF788F968760A481022A9
:102EC00000211230FDF781F9A87607481022002171
:102ED0001530FDF77AF9E87619B030BDBC03002053
:102EE00058330008F01100200200002082B2642351
:102EF0000148FEF7D8BF0000F011002010B50446CD
:102F00009AB064211348FDF728F9642212496846F3
:102F1000FDF708F9224611A11248FFF715FC1148E8
:102F2000FDF738F902460F496846FDF73AF9684659
:102F3000FDF730F982B2642369460B48FEF7B3FF10
:102F400064234FF4FA7203490748FEF74FFF1AB0A3
:102F500010BD0000430E0020A437000825690D0AAB
:102F600000000000830F0020F011002010B504467F
:102F70009AB032211248FDF7F0F8642211496846F0
:102F8000FDF7D0F82046FDF705F9024621466846D0
:102F9000FDF707F909220CA16846FDF702F968461A
:102FA000FDF7F8F882B2642369460848FEF77BFF14
:102FB0006423322202490548FEF718FF1AB010BDFB
:102FC000870B002014360008220D0A00F0110020A3
:102FD00000B599B032210C48FDF7BFF864220B49C7
:102FE0006846FDF79FF86846FDF7D4F882B264237F
:102FF00069460748FEF757FF642332220249044816
:10300000FEF7F4FE19B000BDB90B0020B035000882
:10301000F011002000B599B032210C48FDF79DF861
:1030200064220B496846FDF77DF86846FDF7B2F863
:1030300082B2642369460748FEF735FF64231A46C7
:1030400002490448FEF7D2FE19B000BDEB10002083
:10305000283B0008F011002000B599B064210C480D
:10306000FDF77BF864220B496846FDF75BF868467C
:10307000FDF790F882B2642369460748FEF713FF14
:1030800064231A4602490448FEF7B0FE19B000BD99
:10309000640100202C320008F011002000B599B026
:1030A00032210C48FDF759F864220B496846FDF7B8
:1030B00039F86846FDF76EF882B26423694607481E
:1030C000FEF7F1FE64231A4602490448FEF78EFE1D
:1030D00019B000BD55100020C43A0008F0110020BE
:1030E00000B599B032210C48FDF737F864220B493E
:1030F0006846FDF717F86846FDF74CF882B264237E
:1031000069460748FEF7CFFE64231A460249044881
:10311000FEF76CFE19B000BD1F0F00203439000807
:10312000F011002000B599B032210C48FDF715F8D8
:1031300064220B496846FCF7F5FF6846FDF72AF85C
:1031400082B2642369460748FEF7ADFE64231A463F
:1031500002490448FEF74AFE19B000BD8D0F002059
:10316000D0380008F011002070B50D4606464FF427
:10317000C8749AB021462448FCF7EFFF6422234923
:103180006846FCF7CFFF3046FDF704F802463146AB
:103190006846FDF706F803221DA16846FDF701F811
:1031A0002846FCF7F7FF024629466846FCF7F9FF78
:1031B000032218A16846FCF7F4FF6846FCF7EAFF13
:1031C00082B2642369461448FEF76DFE42F2107322
:1031D00064220D491048FEF709FE10A10A48FCF7C9
:1031E000C7FF50B114211048FCF7B7FF214606482D
:1031F000FCF7B3FF01201AB070BD21460248FCF76E
:10320000ACFF0020F7E70000EB0B00207836000849
:10321000222C00000D0A0000F0110020434F4E4EFA
:10322000454354204F4B00000B0F002041542B51BD
:10323000474E5353433D310D0A000000000000008B
:10324000000000000000000000000000000000007E
:10325000000000000000000000000000000000006E
:10326000000000000000000000000000000000005E
:10327000000000000000000000000000000000004E
:10328000000000000000000000000000000000003E
:1032900041542B51474E535352443D224E4D4541CC
:1032A0002F524D43220D0A000000000000000000D4
:1032B000000000000000000000000000000000000E
:1032C00000000000000000000000000000000000FE
:1032D00000000000000000000000000000000000EE
:1032E00000000000000000000000000000000000DE
:1032F0000000000041542B51474E535352443D228D
:103300004E4D45412F474741220D0A000000000065
:1033100000000000000000000000000000000000AD
:10332000000000000000000000000000000000009D
:10333000000000000000000000000000000000008D
:10334000000000000000000000000000000000007D
:10335000000000000000000041542B47534E0D0AAE
:10336000000000000000000000000000000000005D
:10337000000000000000000000000000000000004D
:10338000000000000000000000000000000000003D
:10339000000000000000000000000000000000002D
:1033A000000000000000000000000000000000001D
:1033B00000000000000000000000000041542B430A
:1033C000434C4B3F0D0A00000000000000000000CD
:1033D00000000000000000000000000000000000ED
:1033E00000000000000000000000000000000000DD
:1033F00000000000000000000000000000000000CD
:1034000000000000000000000000000000000000BC
:1034100000000000000000000000000000000000AC
:1034200041542B51454E473D310D0A00000000002C
:10343000000000000000000000000000000000008C
:10344000000000000000000000000000000000007C
:10345000000000000000000000000000000000006C
:10346000000000000000000000000000000000005C
:10347000000000000000000000000000000000004C
:103480000000000041542B51454E473F0D0A0000FB
:10349000000000000000000000000000000000002C
:1034A000000000000000000000000000000000001C
:1034B000000000000000000000000000000000000C
:1034C00000000000000000000000000000000000FC
:1034D00000000000000000000000000000000000EC
:1034E000000000000000000041542B51474E535390
:1034F00052443D224E4D45412F565447220D0A005D
:1035000000000000000000000000000000000000BB
:1035100000000000000000000000000000000000AB
:10352000000000000000000000000000000000009B
:10353000000000000000000000000000000000008B
:1035400000000000000000000000000041542B4378
:1035500053510D0A000000000000000000000000B0
:10356000000000000000000000000000000000005B
:10357000000000000000000000000000000000004B
:10358000000000000000000000000000000000003B
:10359000000000000000000000000000000000002B
:1035A000000000000000000000000000000000001B
:1035B00041542B4950523D393630300D0A0000003D
:1035C00000000000000000000000000000000000FB
:1035D00000000000000000000000000000000000EB
:1035E00000000000000000000000000000000000DB
:1035F00000000000000000000000000000000000CB
:1036000000000000000000000000000000000000BA
:103610000000000041542B5149435347503D312C89
:103620002200000000000000000000000000000078
:10363000000000000000000000000000000000008A
:10364000000000000000000000000000000000007A
:10365000000000000000000000000000000000006A
:10366000000000000000000000000000000000005A
:10367000000000000000000041542B51494F50450C
:103680004E3D22544350222C220000000000000036
:10369000000000000000000000000000000000002A
:1036A000000000000000000000000000000000001A
:1036B000000000000000000000000000000000000A
:1036C00000000000000000000000000000000000FA
:1036D00000000000000000000000000041542B43E7
:1036E000494653520D0A000000000000000000008F
:1036F00000000000000000000000000000000000CA
:1037000000000000000000000000000000000000B9
:1037100000000000000000000000000000000000A9
:103720000000000000000000000000000000000099
:103730000000000000000000000000000000000089
:1037400041542B5149434C4F53450D0A0000000092
:103750000000000000000000000000000000000069
:103760000000000000000000000000000000000059
:103770000000000000000000000000000000000049
:103780000000000000000000000000000000000039
:103790000000000000000000000000000000000029
:1037A0000000000041542B514953454E443D000058
:1037B0000000000000000000000000000000000009
:1037C00000000000000000000000000000000000F9
:1037D00000000000000000000000000000000000E9
:1037E00000000000000000000000000000000000D9
:1037F00000000000000000000000000000000000C9
:10380000000000000000000041542B434752454790
:103810003F0D0A0000000000000000000000000052
:103820000000000000000000000000000000000098
:103830000000000000000000000000000000000088
:103840000000000000000000000000000000000078
:103850000000000000000000000000000000000068
:1038600000000000000000000000000041542B5147
:10387000494143543D3F0D0A000000000000000094
:103880000000000000000000000000000000000038
:103890000000000000000000000000000000000028
:1038A0000000000000000000000000000000000018
:1038B0000000000000000000000000000000000008
:1038C00000000000000000000000000000000000F8
:1038D00041542B51494D4F44453D300D0A000000E5
:1038E00000000000000000000000000000000000D8
:1038F00000000000000000000000000000000000C8
:1039000000000000000000000000000000000000B7
:1039100000000000000000000000000000000000A7
:103920000000000000000000000000000000000097
:103930000000000041542B5149444E5349503D3141
:103940000D0A000000000000000000000000000060
:103950000000000000000000000000000000000067
:103960000000000000000000000000000000000057
:103970000000000000000000000000000000000047
:103980000000000000000000000000000000000037
:10399000000000000000000041542B434D47443D0F
:1039A000312C340D0A00000000000000000000006F
:1039B0000000000000000000000000000000000007
:1039C00000000000000000000000000000000000F7
:1039D00000000000000000000000000000000000E7
:1039E00000000000000000000000000000000000D7
:1039F00000000000000000000000000041542B43C4
:103A00004D474C3D2252454320554E52454144229C
:103A10000D0A00000000000000000000000000008F
:103A20000000000000000000000000000000000096
:103A30000000000000000000000000000000000086
:103A40000000000000000000000000000000000076
:103A50000000000000000000000000000000000066
:103A600041542B434E4D493D322C310D0A0000008C
:103A70000000000000000000000000000000000046
:103A80000000000000000000000000000000000036
:103A90000000000000000000000000000000000026
:103AA0000000000000000000000000000000000016
:103AB0000000000000000000000000000000000006
:103AC0000000000041542B434D47463D310D0A0094
:103AD00000000000000000000000000000000000E6
:103AE00000000000000000000000000000000000D6
:103AF00000000000000000000000000000000000C6
:103B000000000000000000000000000000000000B5
:103B100000000000000000000000000000000000A5
:103B2000000000000000000041542B435343533D6C
:103B30002247534D220D0A00000000000000000043
:103B40000000000000000000000000000000000075
:103B50000000000000000000000000000000000065
:103B60000000000000000000000000000000000055
:103B70000000000000000000000000000000000045
:103B80000000000000000000000000000000000035
:103B900000000000010203040607080900000000FD
:103BA0000102030400404040404040404040414149
:103BB0004141414040404040404040404040404002
:103BC000404040404005020202020202020202029C
:103BD0000202020202202020202020202020200299
:103BE0000202020202029090909090901010101029
:103BF00010101010101010101010101010101010C5
:103C00000202020202028888888888880808080858
:103C10000808080808080808080808080808080824
:103C20000202020240000000A53B00084C3C0008D4
:103C3000000000206401000050030008843C0008DC
:103C40006401002044170000A82700080161001546
:103C5000517461696C6F722E636C6F75646D7174F1
:103C6000742E636F6D062E31343337330426777725
:103C700077082C475252454E4C594201921063240A
:043C8000F40000004C
:04000005080000ED02
:00000001FF
